{
  "contractName": "WifiAllocation",
  "abi": [
    {
      "inputs": [
        {
          "internalType": "uint256",
          "name": "_totalBandwidth",
          "type": "uint256"
        },
        {
          "internalType": "uint256",
          "name": "_minBandwidthPrice",
          "type": "uint256"
        },
        {
          "internalType": "uint256",
          "name": "_minBurstPriceFactor",
          "type": "uint256"
        }
      ],
      "payable": false,
      "stateMutability": "nonpayable",
      "type": "constructor"
    },
    {
      "anonymous": false,
      "inputs": [
        {
          "indexed": false,
          "internalType": "uint256",
          "name": "_numUsers",
          "type": "uint256"
        },
        {
          "indexed": false,
          "internalType": "uint256[]",
          "name": "_allocatedBandwidth",
          "type": "uint256[]"
        },
        {
          "indexed": false,
          "internalType": "uint256[]",
          "name": "_currentBalances",
          "type": "uint256[]"
        },
        {
          "indexed": false,
          "internalType": "uint256[]",
          "name": "_actualPrices",
          "type": "uint256[]"
        },
        {
          "indexed": false,
          "internalType": "bool[]",
          "name": "_isActive",
          "type": "bool[]"
        },
        {
          "indexed": false,
          "internalType": "uint256[]",
          "name": "_burstVol",
          "type": "uint256[]"
        }
      ],
      "name": "UponAllocation",
      "type": "event"
    },
    {
      "constant": true,
      "inputs": [
        {
          "internalType": "uint256",
          "name": "",
          "type": "uint256"
        }
      ],
      "name": "actualPrices",
      "outputs": [
        {
          "internalType": "uint256",
          "name": "",
          "type": "uint256"
        }
      ],
      "payable": false,
      "stateMutability": "view",
      "type": "function"
    },
    {
      "constant": true,
      "inputs": [
        {
          "internalType": "uint256",
          "name": "",
          "type": "uint256"
        }
      ],
      "name": "allocatedBandwidth",
      "outputs": [
        {
          "internalType": "uint256",
          "name": "",
          "type": "uint256"
        }
      ],
      "payable": false,
      "stateMutability": "view",
      "type": "function"
    },
    {
      "constant": true,
      "inputs": [],
      "name": "bandwidthPrice",
      "outputs": [
        {
          "internalType": "uint256",
          "name": "",
          "type": "uint256"
        }
      ],
      "payable": false,
      "stateMutability": "view",
      "type": "function"
    },
    {
      "constant": true,
      "inputs": [],
      "name": "burstPrice",
      "outputs": [
        {
          "internalType": "uint256",
          "name": "",
          "type": "uint256"
        }
      ],
      "payable": false,
      "stateMutability": "view",
      "type": "function"
    },
    {
      "constant": true,
      "inputs": [
        {
          "internalType": "uint256",
          "name": "",
          "type": "uint256"
        }
      ],
      "name": "burstVol",
      "outputs": [
        {
          "internalType": "uint256",
          "name": "",
          "type": "uint256"
        }
      ],
      "payable": false,
      "stateMutability": "view",
      "type": "function"
    },
    {
      "constant": true,
      "inputs": [
        {
          "internalType": "uint256",
          "name": "",
          "type": "uint256"
        }
      ],
      "name": "currentBalances",
      "outputs": [
        {
          "internalType": "uint256",
          "name": "",
          "type": "uint256"
        }
      ],
      "payable": false,
      "stateMutability": "view",
      "type": "function"
    },
    {
      "constant": true,
      "inputs": [
        {
          "internalType": "uint256",
          "name": "",
          "type": "uint256"
        }
      ],
      "name": "isActive",
      "outputs": [
        {
          "internalType": "bool",
          "name": "",
          "type": "bool"
        }
      ],
      "payable": false,
      "stateMutability": "view",
      "type": "function"
    },
    {
      "constant": true,
      "inputs": [
        {
          "internalType": "uint256",
          "name": "",
          "type": "uint256"
        }
      ],
      "name": "isDynamic",
      "outputs": [
        {
          "internalType": "bool",
          "name": "",
          "type": "bool"
        }
      ],
      "payable": false,
      "stateMutability": "view",
      "type": "function"
    },
    {
      "constant": true,
      "inputs": [],
      "name": "latestTransaction",
      "outputs": [
        {
          "internalType": "uint256",
          "name": "",
          "type": "uint256"
        }
      ],
      "payable": false,
      "stateMutability": "view",
      "type": "function"
    },
    {
      "constant": true,
      "inputs": [],
      "name": "minBandwidthPrice",
      "outputs": [
        {
          "internalType": "uint256",
          "name": "",
          "type": "uint256"
        }
      ],
      "payable": false,
      "stateMutability": "view",
      "type": "function"
    },
    {
      "constant": true,
      "inputs": [],
      "name": "minBurstPriceFactor",
      "outputs": [
        {
          "internalType": "uint256",
          "name": "",
          "type": "uint256"
        }
      ],
      "payable": false,
      "stateMutability": "view",
      "type": "function"
    },
    {
      "constant": true,
      "inputs": [],
      "name": "numUsers",
      "outputs": [
        {
          "internalType": "uint256",
          "name": "",
          "type": "uint256"
        }
      ],
      "payable": false,
      "stateMutability": "view",
      "type": "function"
    },
    {
      "constant": true,
      "inputs": [],
      "name": "oldPrice",
      "outputs": [
        {
          "internalType": "uint256",
          "name": "",
          "type": "uint256"
        }
      ],
      "payable": false,
      "stateMutability": "view",
      "type": "function"
    },
    {
      "constant": true,
      "inputs": [],
      "name": "owner",
      "outputs": [
        {
          "internalType": "address payable",
          "name": "",
          "type": "address"
        }
      ],
      "payable": false,
      "stateMutability": "view",
      "type": "function"
    },
    {
      "constant": true,
      "inputs": [],
      "name": "pendingCollection",
      "outputs": [
        {
          "internalType": "uint256",
          "name": "",
          "type": "uint256"
        }
      ],
      "payable": false,
      "stateMutability": "view",
      "type": "function"
    },
    {
      "constant": true,
      "inputs": [],
      "name": "totalBandwidth",
      "outputs": [
        {
          "internalType": "uint256",
          "name": "",
          "type": "uint256"
        }
      ],
      "payable": false,
      "stateMutability": "view",
      "type": "function"
    },
    {
      "constant": true,
      "inputs": [],
      "name": "totalCollected",
      "outputs": [
        {
          "internalType": "uint256",
          "name": "",
          "type": "uint256"
        }
      ],
      "payable": false,
      "stateMutability": "view",
      "type": "function"
    },
    {
      "constant": true,
      "inputs": [],
      "name": "totalDesiredBandwidth",
      "outputs": [
        {
          "internalType": "uint256",
          "name": "",
          "type": "uint256"
        }
      ],
      "payable": false,
      "stateMutability": "view",
      "type": "function"
    },
    {
      "constant": true,
      "inputs": [],
      "name": "totalDesiredBurst",
      "outputs": [
        {
          "internalType": "uint256",
          "name": "",
          "type": "uint256"
        }
      ],
      "payable": false,
      "stateMutability": "view",
      "type": "function"
    },
    {
      "constant": true,
      "inputs": [],
      "name": "totalDesiredDynamic",
      "outputs": [
        {
          "internalType": "uint256",
          "name": "",
          "type": "uint256"
        }
      ],
      "payable": false,
      "stateMutability": "view",
      "type": "function"
    },
    {
      "constant": true,
      "inputs": [],
      "name": "totalDesiredNonDynamic",
      "outputs": [
        {
          "internalType": "uint256",
          "name": "",
          "type": "uint256"
        }
      ],
      "payable": false,
      "stateMutability": "view",
      "type": "function"
    },
    {
      "constant": false,
      "inputs": [
        {
          "internalType": "uint256",
          "name": "bandwidth",
          "type": "uint256"
        },
        {
          "internalType": "uint256",
          "name": "thresholdBid",
          "type": "uint256"
        },
        {
          "internalType": "uint256",
          "name": "burst",
          "type": "uint256"
        }
      ],
      "name": "uponConnection",
      "outputs": [],
      "payable": true,
      "stateMutability": "payable",
      "type": "function"
    },
    {
      "constant": false,
      "inputs": [],
      "name": "addBalance",
      "outputs": [],
      "payable": true,
      "stateMutability": "payable",
      "type": "function"
    },
    {
      "constant": true,
      "inputs": [
        {
          "internalType": "address",
          "name": "_user",
          "type": "address"
        }
      ],
      "name": "getUserID",
      "outputs": [
        {
          "internalType": "uint256",
          "name": "",
          "type": "uint256"
        }
      ],
      "payable": false,
      "stateMutability": "view",
      "type": "function"
    },
    {
      "constant": true,
      "inputs": [
        {
          "internalType": "uint256",
          "name": "_userID",
          "type": "uint256"
        }
      ],
      "name": "getUserAllocation",
      "outputs": [
        {
          "internalType": "uint256",
          "name": "",
          "type": "uint256"
        }
      ],
      "payable": false,
      "stateMutability": "view",
      "type": "function"
    },
    {
      "constant": true,
      "inputs": [
        {
          "internalType": "uint256",
          "name": "_userID",
          "type": "uint256"
        }
      ],
      "name": "getUserBalance",
      "outputs": [
        {
          "internalType": "uint256",
          "name": "",
          "type": "uint256"
        }
      ],
      "payable": false,
      "stateMutability": "view",
      "type": "function"
    },
    {
      "constant": false,
      "inputs": [],
      "name": "performAllocation",
      "outputs": [],
      "payable": false,
      "stateMutability": "nonpayable",
      "type": "function"
    },
    {
      "constant": false,
      "inputs": [],
      "name": "updateBalance",
      "outputs": [],
      "payable": false,
      "stateMutability": "nonpayable",
      "type": "function"
    },
    {
      "constant": false,
      "inputs": [
        {
          "internalType": "uint256",
          "name": "userID",
          "type": "uint256"
        },
        {
          "internalType": "uint256",
          "name": "bandwidth",
          "type": "uint256"
        },
        {
          "internalType": "uint256",
          "name": "duration",
          "type": "uint256"
        },
        {
          "internalType": "bool",
          "name": "useOldPrice",
          "type": "bool"
        }
      ],
      "name": "topBack",
      "outputs": [],
      "payable": false,
      "stateMutability": "nonpayable",
      "type": "function"
    }
  ],
  "bytecode": "0x608060405234801561001057600080fd5b50604051612cd4380380612cd48339818101604052606081101561003357600080fd5b81019080805190602001909291908051906020019092919080519060200190929190505050336000806101000a81548173ffffffffffffffffffffffffffffffffffffffff021916908373ffffffffffffffffffffffffffffffffffffffff1602179055508260018190555081600681905550806009819055506064600654026007819055506001806009540202600a81905550505050612bfb806100d96000396000f3fe6080604052600436106101c25760003560e01c80638da5cb5b116100f7578063ba9ce1d611610095578063d6a8866f11610064578063d6a8866f1461079a578063d85678c8146107c5578063dbd061d3146107dc578063e29eb83614610807576101c2565b8063ba9ce1d6146106a6578063bdfd6c4b146106f5578063c106170e14610720578063c64028f91461076f576101c2565b8063a65f9142116100d1578063a65f91421461060b578063a743e3e714610636578063a9559dd714610685578063b163cc381461069c576101c2565b80638da5cb5b146105365780638f95c5541461058d578063a2d7b9b9146105b8576101c2565b8063595d79e3116101645780637ee47e921161013e5780637ee47e92146104325780637f431a251461045d57806382afd23b146104b8578063845ea21a1461050b576101c2565b8063595d79e31461039a5780636372ea04146103c557806371dced17146103f0576101c2565b80632e0c3f3c116101a05780632e0c3f3c146102a6578063440850fd146102f557806344ff57a41461032057806347593ae71461036f576101c2565b8063062ca933146101c75780630ef12aa91461021657806319a50f491461027b575b600080fd5b3480156101d357600080fd5b50610200600480360360208110156101ea57600080fd5b8101908080359060200190929190505050610832565b6040518082815260200191505060405180910390f35b34801561022257600080fd5b506102656004803603602081101561023957600080fd5b81019080803573ffffffffffffffffffffffffffffffffffffffff169060200190929190505050610853565b6040518082815260200191505060405180910390f35b34801561028757600080fd5b5061029061089c565b6040518082815260200191505060405180910390f35b3480156102b257600080fd5b506102df600480360360208110156102c957600080fd5b81019080803590602001909291905050506108a2565b6040518082815260200191505060405180910390f35b34801561030157600080fd5b5061030a6108c3565b6040518082815260200191505060405180910390f35b34801561032c57600080fd5b506103596004803603602081101561034357600080fd5b81019080803590602001909291905050506108c9565b6040518082815260200191505060405180910390f35b34801561037b57600080fd5b506103846108f4565b6040518082815260200191505060405180910390f35b3480156103a657600080fd5b506103af6108fa565b6040518082815260200191505060405180910390f35b3480156103d157600080fd5b506103da610900565b6040518082815260200191505060405180910390f35b6104306004803603606081101561040657600080fd5b81019080803590602001909291908035906020019092919080359060200190929190505050610906565b005b34801561043e57600080fd5b50610447610c00565b6040518082815260200191505060405180910390f35b34801561046957600080fd5b506104b66004803603608081101561048057600080fd5b81019080803590602001909291908035906020019092919080359060200190929190803515159060200190929190505050610c06565b005b3480156104c457600080fd5b506104f1600480360360208110156104db57600080fd5b8101908080359060200190929190505050610d65565b604051808215151515815260200191505060405180910390f35b34801561051757600080fd5b50610520610d96565b6040518082815260200191505060405180910390f35b34801561054257600080fd5b5061054b610d9c565b604051808273ffffffffffffffffffffffffffffffffffffffff1673ffffffffffffffffffffffffffffffffffffffff16815260200191505060405180910390f35b34801561059957600080fd5b506105a2610dc1565b6040518082815260200191505060405180910390f35b3480156105c457600080fd5b506105f1600480360360208110156105db57600080fd5b8101908080359060200190929190505050610dc7565b604051808215151515815260200191505060405180910390f35b34801561061757600080fd5b50610620610df8565b6040518082815260200191505060405180910390f35b34801561064257600080fd5b5061066f6004803603602081101561065957600080fd5b8101908080359060200190929190505050610dfe565b6040518082815260200191505060405180910390f35b34801561069157600080fd5b5061069a610e1f565b005b6106a461136b565b005b3480156106b257600080fd5b506106df600480360360208110156106c957600080fd5b810190808035906020019092919050505061152f565b6040518082815260200191505060405180910390f35b34801561070157600080fd5b5061070a611550565b6040518082815260200191505060405180910390f35b34801561072c57600080fd5b506107596004803603602081101561074357600080fd5b8101908080359060200190929190505050611556565b6040518082815260200191505060405180910390f35b34801561077b57600080fd5b50610784611577565b6040518082815260200191505060405180910390f35b3480156107a657600080fd5b506107af61157d565b6040518082815260200191505060405180910390f35b3480156107d157600080fd5b506107da611583565b005b3480156107e857600080fd5b506107f16115a6565b6040518082815260200191505060405180910390f35b34801561081357600080fd5b5061081c6115ac565b6040518082815260200191505060405180910390f35b600f818154811061083f57fe5b906000526020600020016000915090505481565b6000601660008373ffffffffffffffffffffffffffffffffffffffff1673ffffffffffffffffffffffffffffffffffffffff168152602001908152602001600020549050919050565b600e5481565b6000601082815481106108b157fe5b90600052602060002001549050919050565b60065481565b60006064600f83815481106108da57fe5b9060005260206000200154816108ec57fe5b049050919050565b60085481565b600b5481565b60015481565b6000809054906101000a900473ffffffffffffffffffffffffffffffffffffffff1673ffffffffffffffffffffffffffffffffffffffff163373ffffffffffffffffffffffffffffffffffffffff1614156109ac576040517f08c379a0000000000000000000000000000000000000000000000000000000008152600401808060200182810382526023815260200180612ba46023913960400191505060405180910390fd5b42600d819055506000831115610af5576000601660003373ffffffffffffffffffffffffffffffffffffffff1673ffffffffffffffffffffffffffffffffffffffff168152602001908152602001600020541115610aa1576000601660003373ffffffffffffffffffffffffffffffffffffffff1673ffffffffffffffffffffffffffffffffffffffff16815260200190815260200160002054905060116001820381548110610a5857fe5b90600052602060002090602091828204019190069054906101000a900460ff1615610a8e57610a89818585856115b2565b610a9b565b610a9a81858585611792565b5b50610af0565b610aac8383836119ec565b601660003373ffffffffffffffffffffffffffffffffffffffff1673ffffffffffffffffffffffffffffffffffffffff168152602001908152602001600020819055505b610bfb565b6000601660003373ffffffffffffffffffffffffffffffffffffffff1673ffffffffffffffffffffffffffffffffffffffff1681526020019081526020016000205411610baa576040517f08c379a000000000000000000000000000000000000000000000000000000000815260040180806020018281038252601d8152602001807f596f7520617265206e6f7420616e206578697374696e6720757365722100000081525060200191505060405180910390fd5b610bf2601660003373ffffffffffffffffffffffffffffffffffffffff1673ffffffffffffffffffffffffffffffffffffffff16815260200190815260200160002054611d53565b610bfa612065565b5b505050565b600a5481565b6000809054906101000a900473ffffffffffffffffffffffffffffffffffffffff1673ffffffffffffffffffffffffffffffffffffffff163373ffffffffffffffffffffffffffffffffffffffff1614610cab576040517f08c379a0000000000000000000000000000000000000000000000000000000008152600401808060200182810382526025815260200180612b7f6025913960400191505060405180910390fd5b60006064905060118581548110610cbe57fe5b90600052602060002090602091828204019190069054906101000a900460ff1615610d5e57600082610cf257600754610cf6565b6008545b90506000826064800202858784020281610d0c57fe5b0490508060108881548110610d1d57fe5b906000526020600020016000828254019250508190555080600b5410610d525780600b60008282540392505081905550610d5b565b6000600b819055505b50505b5050505050565b60118181548110610d7257fe5b9060005260206000209060209182820401919006915054906101000a900460ff1681565b600d5481565b6000809054906101000a900473ffffffffffffffffffffffffffffffffffffffff1681565b60035481565b60128181548110610dd457fe5b9060005260206000209060209182820401919006915054906101000a900460ff1681565b60075481565b60148181548110610e0b57fe5b906000526020600020016000915090505481565b60008090505b600e5481101561119f5760118181548110610e3c57fe5b90600052602060002090602091828204019190069054906101000a900460ff1615611192576000429050600060648002601560006001860181526020019081526020016000206003015483036015600060018701815260200190815260200160002060020154600754020281610eae57fe5b0490506064601560006001860181526020019081526020016000206003015483036015600060018701815260200190815260200160002060050154600a54020281610ef557fe5b04810190508160156000600186018152602001908152602001600020600301819055508060108481548110610f2657fe5b906000526020600020015410610f70578060108481548110610f4457fe5b906000526020600020016000828254039250508190555080600b6000828254019250508190555061118f565b60108381548110610f7d57fe5b90600052602060002001549050600060108481548110610f9957fe5b906000526020600020018190555080600b600082825401925050819055506000601560006001860181526020019081526020016000206002018190555060156000600185018152602001908152602001600020600101546002600082825403925050819055506012838154811061100c57fe5b90600052602060002090602091828204019190069054906101000a900460ff161561105f576015600060018501815260200190815260200160002060010154600460008282540392505081905550611089565b60156000600185018152602001908152602001600020600101546003600082825403925050819055505b600060156000600186018152602001908152602001600020600101819055506000600f84815481106110b757fe5b90600052602060002001819055506000601384815481106110d457fe5b90600052602060002001819055506000601184815481106110f157fe5b90600052602060002090602091828204019190066101000a81548160ff02191690831515021790555060006012848154811061112957fe5b90600052602060002090602091828204019190066101000a81548160ff0219169083151502179055506000601560006001860181526020019081526020016000206005018190555060006014848154811061118057fe5b90600052602060002001819055505b50505b8080600101915050610e25565b506111a8612138565b7fbdb1954f2301a22fbd5a142ecff092731a7fbae4ce3b204dabb6b84eb7ac6fe6600e54600f601060136011601460405180878152602001806020018060200180602001806020018060200186810386528b818154815260200191508054801561123157602002820191906000526020600020905b81548152602001906001019080831161121d575b505086810385528a818154815260200191508054801561127057602002820191906000526020600020905b81548152602001906001019080831161125c575b505086810384528981815481526020019150805480156112af57602002820191906000526020600020905b81548152602001906001019080831161129b575b5050868103835288818154815260200191508054801561131357602002820191906000526020600020906000905b82829054906101000a900460ff161515815260200190600101906020826000010492830192600103820291508084116112dd5790505b5050868103825287818154815260200191508054801561135257602002820191906000526020600020905b81548152602001906001019080831161133e575b50509b50505050505050505050505060405180910390a1565b6000809054906101000a900473ffffffffffffffffffffffffffffffffffffffff1673ffffffffffffffffffffffffffffffffffffffff163373ffffffffffffffffffffffffffffffffffffffff161415611411576040517f08c379a0000000000000000000000000000000000000000000000000000000008152600401808060200182810382526023815260200180612ba46023913960400191505060405180910390fd5b6000601660003373ffffffffffffffffffffffffffffffffffffffff1673ffffffffffffffffffffffffffffffffffffffff16815260200190815260200160002054116114c6576040517f08c379a000000000000000000000000000000000000000000000000000000000815260040180806020018281038252601d8152602001807f596f7520617265206e6f7420616e206578697374696e6720757365722100000081525060200191505060405180910390fd5b3460106001601660003373ffffffffffffffffffffffffffffffffffffffff1673ffffffffffffffffffffffffffffffffffffffff16815260200190815260200160002054038154811061151657fe5b9060005260206000200160008282540192505081905550565b6013818154811061153c57fe5b906000526020600020016000915090505481565b60045481565b6010818154811061156357fe5b906000526020600020016000915090505481565b60095481565b60025481565b6001546002541161159b576115966121c2565b6115a4565b6115a36122a5565b5b565b60055481565b600c5481565b6015600085815260200190815260200160002060010154836002540103600281905550601260018503815481106115e557fe5b90600052602060002090602091828204019190069054906101000a900460ff1615611632576015600085815260200190815260200160002060010154836004540103600481905550611656565b60156000858152602001908152602001600020600101548360035401036003819055505b6015600085815260200190815260200160002060050154816005540103600581905550346010600186038154811061168a57fe5b9060005260206000200160008282540192505081905550826015600086815260200190815260200160002060010181905550816015600086815260200190815260200160002060040181905550806015600086815260200190815260200160002060050181905550806014600186038154811061170357fe5b906000526020600020018190555060006015600086815260200190815260200160002060010154841015905061177b816117585760648560156000898152602001908152602001600020600101540302611775565b606460156000888152602001908152602001600020600101548603025b8261257b565b611783611583565b61178b610e1f565b5050505050565b60003411611808576040517f08c379a00000000000000000000000000000000000000000000000000000000081526004018080602001828103825260198152602001807f596f75206d7573742070617920736f6d652076616c756520210000000000000081525060200191505060405180910390fd5b60016011600186038154811061181a57fe5b90600052602060002090602091828204019190066101000a81548160ff0219169083151502179055508260026000828254019250508190555081606484600754028161186257fe5b0411156118b95760016012600186038154811061187b57fe5b90600052602060002090602091828204019190066101000a81548160ff02191690831515021790555082600460008282540192505081905550611905565b6000601260018603815481106118cb57fe5b90600052602060002090602091828204019190066101000a81548160ff021916908315150217905550826003600082825401925050819055505b80600560008282540192505081905550346010600186038154811061192657fe5b906000526020600020016000828254019250508190555082601560008681526020019081526020016000206001018190555042601560008681526020019081526020016000206003018190555081601560008681526020019081526020016000206004018190555080601560008681526020019081526020016000206005018190555080601460018603815481106119ba57fe5b90600052602060002001819055506119d660648402600161257b565b6119de611583565b6119e6610e1f565b50505050565b6000803411611a63576040517f08c379a00000000000000000000000000000000000000000000000000000000081526004018080602001828103825260198152602001807f596f75206d7573742070617920736f6d652076616c756520210000000000000081525060200191505060405180910390fd5b600e6000815460010191905081905590506040518060c001604052803373ffffffffffffffffffffffffffffffffffffffff16815260200185815260200160008152602001428152602001848152602001838152506015600083815260200190815260200160002060008201518160000160006101000a81548173ffffffffffffffffffffffffffffffffffffffff021916908373ffffffffffffffffffffffffffffffffffffffff1602179055506020820151816001015560408201518160020155606082015181600301556080820151816004015560a0820151816005015590505060116001908060018154018082558091505090600182039060005260206000209060209182820401919006909192909190916101000a81548160ff0219169083151502179055505083600260008282540192505081905550826064856007540281611bae57fe5b041115611c125760126001908060018154018082558091505090600182039060005260206000209060209182820401919006909192909190916101000a81548160ff0219169083151502179055505083600460008282540192505081905550611c6b565b60126000908060018154018082558091505090600182039060005260206000209060209182820401919006909192909190916101000a81548160ff02191690831515021790555050836003600082825401925050819055505b81600560008282540192505081905550600f600090806001815401808255809150509060018203906000526020600020016000909192909190915055506010349080600181540180825580915050906001820390600052602060002001600090919290919091505550601360075490806001815401808255809150509060018203906000526020600020016000909192909190915055506014829080600181540180825580915050906001820390600052602060002001600090919290919091505550611d3c60648502600161257b565b611d44611583565b611d4c610e1f565b9392505050565b6000601560008381526020019081526020016000206002015490503460106001840381548110611d7f57fe5b906000526020600020015401601760006015600086815260200190815260200160002060000160009054906101000a900473ffffffffffffffffffffffffffffffffffffffff1673ffffffffffffffffffffffffffffffffffffffff1673ffffffffffffffffffffffffffffffffffffffff16815260200190815260200160002060008282540192505081905550600060116001840381548110611e1f57fe5b90600052602060002090602091828204019190066101000a81548160ff021916908315150217905550601560008381526020019081526020016000206001015460026000828254039250508190555060126001830381548110611e7e57fe5b90600052602060002090602091828204019190069054906101000a900460ff1615611ece576015600083815260200190815260200160002060010154600460008282540392505081905550611ef5565b60156000838152602001908152602001600020600101546003600082825403925050819055505b6015600083815260200190815260200160002060050154600560008282540392505081905550600060126001840381548110611f2d57fe5b90600052602060002090602091828204019190066101000a81548160ff021916908315150217905550600060106001840381548110611f6857fe5b906000526020600020018190555060006015600084815260200190815260200160002060020181905550600060156000848152602001908152602001600020600101819055506000601560008481526020019081526020016000206004018190555060006015600084815260200190815260200160002060050181905550600060146001840381548110611ff857fe5b90600052602060002001819055506000600f600184038154811061201857fe5b906000526020600020018190555060006013600184038154811061203857fe5b906000526020600020018190555061205181600061257b565b612059611583565b612061610e1f565b5050565b6000601760003373ffffffffffffffffffffffffffffffffffffffff1673ffffffffffffffffffffffffffffffffffffffff1681526020019081526020016000205490506000601760003373ffffffffffffffffffffffffffffffffffffffff1673ffffffffffffffffffffffffffffffffffffffff168152602001908152602001600020819055503373ffffffffffffffffffffffffffffffffffffffff166108fc829081150290604051600060405180830381858888f19350505050158015612134573d6000803e3d6000fd5b5050565b6000600b5490506000600b8190555080600c600082825401925050819055506000809054906101000a900473ffffffffffffffffffffffffffffffffffffffff1673ffffffffffffffffffffffffffffffffffffffff166108fc829081150290604051600060405180830381858888f193505050501580156121be573d6000803e3d6000fd5b5050565b60008090505b600e548110156122a257601181815481106121df57fe5b90600052602060002090602091828204019190069054906101000a900460ff1615612295576007546013828154811061221457fe5b90600052602060002001819055506064601560006001840181526020019081526020016000206001015402600f828154811061224c57fe5b9060005260206000200181905550606460156000600184018152602001908152602001600020600101540260156000600184018152602001908152602001600020600201819055505b80806001019150506121c8565b50565b60006122af612634565b600154600354106123aa5760008090505b600e548110156123a457601181815481106122d757fe5b90600052602060002090602091828204019190069054906101000a900460ff1615612397576007546013828154811061230c57fe5b90600052602060002001819055506002546064600154601560006001860181526020019081526020016000206001015402028161234557fe5b04600f828154811061235357fe5b9060005260206000200181905550600f818154811061236e57fe5b906000526020600020015460156000600184018152602001908152602001600020600201819055505b80806001019150506122c0565b50612578565b6003546001540360075460045402816123bf57fe5b04905060008090505b600e5481101561257657601181815481106123df57fe5b90600052602060002090602091828204019190069054906101000a900460ff1615612569576012818154811061241157fe5b90600052602060002090602091828204019190069054906101000a900460ff16156124d9576007546013828154811061244657fe5b9060005260206000200181905550600454606460035460015403601560006001860181526020019081526020016000206001015402028161248357fe5b04600f828154811061249157fe5b9060005260206000200181905550600f81815481106124ac57fe5b90600052602060002001546015600060018401815260200190815260200160002060020181905550612568565b81601382815481106124e757fe5b90600052602060002001819055506064601560006001840181526020019081526020016000206001015402600f828154811061251f57fe5b9060005260206000200181905550606460156000600184018152602001908152602001600020600101540260156000600184018152602001908152602001600020600201819055505b5b80806001019150506123c8565b505b50565b600754600881905550600154600254116125a05760646006540260078190555061261f565b80156125fd57606460015402826064600254020310156125d75760015460025460075402816125cb57fe5b046007819055506125f8565b606460015402826064600154020160075402816125f057fe5b046007819055505b61261e565b6064600154028260646001540203600754028161261657fe5b046007819055505b5b6005546005546009540202600a819055505050565b6000600154600354106128aa5760008090505b600e548110156128a8576011818154811061265e57fe5b90600052602060002090602091828204019190069054906101000a900460ff161561289b576012818154811061269057fe5b90600052602060002090602091828204019190069054906101000a900460ff161580156126fc575060156000600183018152602001908152602001600020600401546064601560006001850181526020019081526020016000206001015460075402816126f957fe5b04115b156127905760016012828154811061271057fe5b90600052602060002090602091828204019190066101000a81548160ff0219169083151502179055506015600060018301815260200190815260200160002060010154600360008282540392505081905550601560006001830181526020019081526020016000206001015460046000828254019250508190555061289a565b6012818154811061279d57fe5b90600052602060002090602091828204019190069054906101000a900460ff1680156128095750601560006001830181526020019081526020016000206004015460646015600060018501815260200190815260200160002060010154600754028161280557fe5b0411155b156128995760006012828154811061281d57fe5b90600052602060002090602091828204019190066101000a81548160ff021916908315150217905550601560006001830181526020019081526020016000206001015460046000828254039250508190555060156000600183018152602001908152602001600020600101546003600082825401925050819055505b5b5b8080600101915050612647565b505b60005b600115612b7a57808060010191505060006001546003541015612b4f576003546001540360075460045402816128df57fe5b04925060008090505b600e54811015612b4d57601181815481106128ff57fe5b90600052602060002090602091828204019190069054906101000a900460ff1615612b40576012818154811061293157fe5b90600052602060002090602091828204019190069054906101000a900460ff1615801561299b575060156000600183018152602001908152602001600020600401546064601560006001850181526020019081526020016000206001015486028161299857fe5b04115b15612a33576001601282815481106129af57fe5b90600052602060002090602091828204019190066101000a81548160ff0219169083151502179055506015600060018301815260200190815260200160002060010154600360008282540392505081905550601560006001830181526020019081526020016000206001015460046000828254019250508190555060019150612b3f565b60128181548110612a4057fe5b90600052602060002090602091828204019190069054906101000a900460ff168015612aaa5750601560006001830181526020019081526020016000206004015460646015600060018501815260200190815260200160002060010154860281612aa657fe5b0411155b15612b3e57600060128281548110612abe57fe5b90600052602060002090602091828204019190066101000a81548160ff02191690831515021790555060156000600183018152602001908152602001600020600101546004600082825403925050819055506015600060018301815260200190815260200160002060010154600360008282540192505081905550600191505b5b5b80806001019150506128e8565b505b801580612b5c5750600a82145b80612b6957506000600354145b15612b745750612b7a565b506128ad565b505056fe4f6e6c7920746865206f776e65722063616e2063616c6c20746869732066756e6374696f6e546865206f776e65722063616e6e6f742063616c6c20746869732066756e6374696f6ea265627a7a723158202c727f424abe3bc14df9beae8dc2fa50a0dc664082f29f952c369af0a7f3d3ee64736f6c63430005100032",
  "source": "pragma solidity >= 0.5.0 < 0.7.0;\n// pragma experimental ABIEncoderV2; // To support struct as return value\n\n// WifiAllocation.sol: Performs bandwidth allocation according to the proportional rule\n// Based on the previous version, and added support for requesting both (1) bandwidth and (2) burst data volume\ncontract WifiAllocation {\n    // Only owner can perform the allocation\n    address payable public owner;\n    uint public totalBandwidth;\n    uint public totalDesiredBandwidth;\n    uint public totalDesiredNonDynamic;\n    uint public totalDesiredDynamic;\n    uint public totalDesiredBurst;\n    // The owner can set a minimum unit price of the bandwidth.\n    // Unit: wei\n    // The price has to be an integer, so it is scaled for higher precision; same for bandwidth\n    uint constant bandwidthPriceScalingFactor = 100;\n    uint constant bandwidthScalingFactor = 100;\n    uint constant burstPriceScalingFactor = 100;\n    uint public minBandwidthPrice;\n    uint public bandwidthPrice;\n    uint public oldPrice;\n    uint public minBurstPriceFactor;\n    // If user does not specify desired burst, a default value is returned (e.g., 1MB)\n    uint public burstPrice;\n    // uint public weight; // Changed to local variables to reduce gas cost\n    // uint public weightedPrice;\n    // The bids to be collected by the contract owner\n    uint public pendingCollection;\n    uint public totalCollected;\n    uint public latestTransaction;\n    \n    // Keep record of all users\n    uint public numUsers;\n    uint[] public allocatedBandwidth;\n    uint[] public currentBalances;\n    bool[] public isActive;\n    // Whether the user accepts dynamic bandwidth allocation\n    // i.e., the allocated bandwidth may fluctuate, while the bid remains the same\n    bool[] public isDynamic;\n    // The corresponding prices that users are charged according to\n    uint[] public actualPrices;\n    uint[] public burstVol;\n    \n    struct User {\n        address userAddress;\n        uint desiredBandwidth;\n        uint receivedBandwidth;\n        uint lastPaymentTime;\n        uint thresholdBid;\n        uint burst;\n    }\n    \n    mapping(uint => User) users;\n    mapping(address => uint) occupiedID;\n    mapping(address => uint) pendingWithdrawl;\n    \n    event UponAllocation(\n        uint _numUsers,\n        uint[] _allocatedBandwidth,\n        uint[] _currentBalances,\n        uint[] _actualPrices,\n        bool[] _isActive,\n        uint[] _burstVol\n    );\n    \n    modifier onlyOwner {\n        require(\n            msg.sender == owner,\n            \"Only the owner can call this function\"\n        );\n        _;\n    }\n    \n    modifier onlyNotOwner {\n        require(\n            msg.sender != owner,\n            \"The owner cannot call this function\"\n        );\n        _;\n    }\n    \n    modifier requirePayment {\n        require(\n            msg.value > 0,\n            \"You must pay some value !\"\n        );\n        _;\n    }\n    \n    constructor(uint _totalBandwidth, uint _minBandwidthPrice, uint _minBurstPriceFactor) public {\n        // Initialises with the total bandwidth specified\n        owner = msg.sender;\n        totalBandwidth = _totalBandwidth;\n        minBandwidthPrice = _minBandwidthPrice;\n        minBurstPriceFactor = _minBurstPriceFactor;\n        bandwidthPrice = minBandwidthPrice * bandwidthPriceScalingFactor;\n        // By default totalDesiredBurst is set to 1\n        burstPrice = minBurstPriceFactor * 1 * 1;\n    }\n    \n    // Called by a user when joining or exitting the wifi connection\n    function uponConnection(uint bandwidth, uint thresholdBid, uint burst) public payable onlyNotOwner {\n        latestTransaction = now;\n        if(bandwidth > 0) {\n            // The user wants to join the connection\n            // Check if user already exists\n            if(occupiedID[msg.sender] > 0) {\n                uint userID = occupiedID[msg.sender];\n                // Array index starts from 0, userID starts from 1\n                if(isActive[userID - 1]) {\n                    /// @notice Case1: The user is still actively connected: renewal of connection\n                    connectionRenewal(userID, bandwidth, thresholdBid, burst);\n                } else {\n                    /// @notice Case2: The user has been disconnected: reentry of connection\n                    connectionReentry(userID, bandwidth, thresholdBid, burst);\n                }\n            } else {\n                /// @notice Case3: The user has never connected before: initialisation of connection\n                occupiedID[msg.sender] = connectionInitialisation(bandwidth, thresholdBid, burst);\n            }\n        } else {\n            /// @notice Case4: The user wants to quit the connection (by indicating a bandwidth of 0)\n            require(occupiedID[msg.sender] > 0, \"You are not an existing user!\");\n            connectionTermination(occupiedID[msg.sender]);\n            withdrawBalance();\n        }\n    }\n    \n    // Called by an ACTIVE user when he only selects to top up balance\n    function addBalance() public payable onlyNotOwner {\n        require(occupiedID[msg.sender] > 0, \"You are not an existing user!\");\n        currentBalances[occupiedID[msg.sender] - 1] += msg.value;\n    }\n    \n    // // Called by the owner to check results for testing purposes\n    // function getAllocationResults() public onlyOwner {\n    // // returns (uint[] memory, uint[] memory, uint, bool[] memory, bool[] memory, uint[] memory) {\n    //     // updateBalance();\n    //     emit UponAllocation(numUsers, allocatedBandwidth, currentBalances, actualPrices, isActive);\n    //     // return (currentBalances, actualPrices, totalCollected, isActive, isDynamic, allocatedBandwidth);\n    // }\n    \n    // // Called by users to check the real-time supply and price\n    // function getPriceAndSupply() public view returns (uint, uint, uint, uint) {\n    //     // Param1: current unit price of bandwidth (scaled by bandwidthPriceScalingFactor)\n    //     // Param2: total demand (totalDesiredBandwidth)\n    //     // Param3: total demand of dynamic users (totalDesiredDynamic)\n    //     // Param4: total demand of non-dynamic users (totalDesiredNonDynamic)\n    //     return (bandwidthPrice, totalDesiredBandwidth, totalDesiredDynamic, totalDesiredNonDynamic);\n    // }\n    \n    // Get user profile\n    // function getUserProfile(uint userID) public view returns (User memory) {\n    //     return users[userID];\n    // }\n    \n    // Get userID\n    function getUserID(address _user) public view returns (uint) {\n        return occupiedID[_user];\n    }\n\n    function getUserAllocation(uint _userID) public view returns (uint) {\n        return allocatedBandwidth[_userID]/bandwidthScalingFactor;\n    }\n    \n    function getUserBalance(uint _userID) public view returns (uint) {\n        return currentBalances[_userID];\n    }\n        \n    // Perform bandwidth allocation depending on the demand and supply\n    function performAllocation() public {\n        if(totalDesiredBandwidth <= totalBandwidth) {\n            demandNotExceedSupply();\n        } else {\n            demandExceedSupply();\n        }\n    }\n    \n    // Deduct balance according to usage\n    // If the balance is not enough, the user is deactived from connection\n    function updateBalance() public {\n        for(uint i = 0; i < numUsers; i++) {\n            if(isActive[i]) {\n                uint currentTime = now;\n                uint currentFee = bandwidthPrice * users[i + 1].receivedBandwidth * (currentTime - users[i + 1].lastPaymentTime) / (bandwidthPriceScalingFactor * bandwidthScalingFactor);\n                // Since there is no capacity limit on burst volume, users are only charged at a constant price specified by owner\n                // The cost of burst is VOLUME * UNIT PRICE * TIME DURATION\n                currentFee += burstPrice * users[i + 1].burst * (currentTime - users[i + 1].lastPaymentTime) / burstPriceScalingFactor;\n                users[i + 1].lastPaymentTime = currentTime;\n                if(currentBalances[i] >= currentFee) {\n                    currentBalances[i] -= currentFee;\n                    pendingCollection += currentFee;\n                } else {\n                    // Deactivate the user from connection\n                    currentFee = currentBalances[i];\n                    currentBalances[i] = 0;\n                    pendingCollection += currentFee;\n                    users[i + 1].receivedBandwidth = 0;\n                    totalDesiredBandwidth -= users[i + 1].desiredBandwidth;\n                    if(isDynamic[i]) {\n                        totalDesiredDynamic -= users[i + 1].desiredBandwidth;\n                    } else {\n                        totalDesiredNonDynamic -= users[i + 1].desiredBandwidth;\n                    }\n                    users[i + 1].desiredBandwidth = 0;\n                    allocatedBandwidth[i] = 0;\n                    actualPrices[i] = 0;\n                    isActive[i] = false;\n                    isDynamic[i] = false;\n                    users[i + 1].burst = 0;\n                    burstVol[i] = 0;\n                    // Calculate the allocation again since the demand has changed\n                    // performAllocation();\n                }\n            }\n        }\n        collectBids();\n        emit UponAllocation(numUsers, allocatedBandwidth, currentBalances, actualPrices, isActive, burstVol);\n    }\n    \n    // Top-up back to user according to the bandwidth wasted\n    // e.g. userID 1, bandwidth 1MB, duration 2 second: (1, 100, 200, false)\n    function topBack(uint userID, uint bandwidth, uint duration, bool useOldPrice) public onlyOwner {\n        uint timingFactor = 100;\n        if(isActive[userID]) {\n            uint price = useOldPrice ? oldPrice : bandwidthPrice;\n            uint topBackFee = price * bandwidth * duration / (bandwidthPriceScalingFactor * bandwidthScalingFactor * timingFactor);\n            currentBalances[userID] += topBackFee;\n            if (pendingCollection >= topBackFee) {\n                pendingCollection -= topBackFee;\n            } else {\n                pendingCollection = 0;\n            }\n        }\n    }\n    \n    \n    // When the user has never connected before\n    function connectionInitialisation(uint bandwidth, uint thresholdBid, uint burst) internal requirePayment returns (uint userID) {\n        // Create profile for the new user\n        userID = ++numUsers;\n        // {userAddress, desiredBandwidth, receivedBandwidth, lastPaymentTime, thresholdBid, burst}\n        users[userID] = User(msg.sender, bandwidth, 0, now, thresholdBid, burst);\n        isActive.push(true);\n        totalDesiredBandwidth += bandwidth;\n        // In this case, the thresholdBid is compared with desiredBandwidth * bandwidthPrice to determine whether the user is dynamic\n        if(bandwidthPrice * bandwidth / bandwidthPriceScalingFactor > thresholdBid) {\n            isDynamic.push(true);\n            totalDesiredDynamic += bandwidth;\n        } else {\n            isDynamic.push(false);\n            totalDesiredNonDynamic += bandwidth;\n        }\n        totalDesiredBurst += burst;\n        allocatedBandwidth.push(0);\n        currentBalances.push(msg.value);\n        actualPrices.push(bandwidthPrice);\n        burstVol.push(burst);\n        updatePrice(bandwidth * bandwidthScalingFactor, true);\n        performAllocation();\n        updateBalance();\n    }\n    \n    // When the user is still connected\n    // The user can either top up his balance or modify his desired bandwidth\n    function connectionRenewal(uint userID, uint bandwidth, uint thresholdBid, uint burst) internal {\n        totalDesiredBandwidth = totalDesiredBandwidth + bandwidth - users[userID].desiredBandwidth;\n        // Since the user is still active, there is no need to update isDynamic (later in performAllocation())\n        if(isDynamic[userID - 1]) {\n            totalDesiredDynamic = totalDesiredDynamic + bandwidth - users[userID].desiredBandwidth;\n        } else {\n            totalDesiredNonDynamic = totalDesiredNonDynamic + bandwidth - users[userID].desiredBandwidth;\n        }\n        totalDesiredBurst = totalDesiredBurst + burst - users[userID].burst;\n        // Update user profile\n        currentBalances[userID - 1] += msg.value;\n        users[userID].desiredBandwidth = bandwidth;\n        users[userID].thresholdBid = thresholdBid;\n        users[userID].burst = burst;\n        burstVol[userID - 1] = burst;\n        // No need to update lastPaymentTime here\n        // Check whether the demand is increasing or decreasing, depending on the *actually received bandwidth(WHICH IS SCALED)*\n        // e.g., User i desires 40 units bandwidth at price 1.2, but receives 32 units at price 1.5\n        // Now he only wants 20 units instead, so the total bid is reduced by 1.5 * (32 - 20)\n        // ***NOTE***: receivedBandwidth is scaled by bandwidthScalingFactor\n        // bool isPositive = (bandwidth * bandwidthScalingFactor >= users[userID].receivedBandwidth);\n        // updatePrice(isPositive ? (bandwidth * bandwidthScalingFactor - users[userID].receivedBandwidth) : (users[userID].receivedBandwidth - bandwidth * bandwidthScalingFactor), isPositive);\n        // --------------------------------------\n        // // ***REMOVED***: depending on the *desired bandwidth* instead, otherwise a user who only wants to top up his balance but retaining his desired bandwidth may \n        // // unintentionally increase the price\n        bool isPositive = (bandwidth >= users[userID].desiredBandwidth);\n        updatePrice(isPositive ? (bandwidth - users[userID].desiredBandwidth) * bandwidthScalingFactor : (users[userID].desiredBandwidth - bandwidth) * bandwidthScalingFactor, isPositive);\n        performAllocation();\n        updateBalance();\n    }\n    \n    // When the user has connected before but was deactivated from connection\n    // The owner still keeps the user profile for a certain period\n    function connectionReentry(uint userID, uint bandwidth, uint thresholdBid, uint burst) internal requirePayment {\n        // Update user profile\n        isActive[userID - 1] = true;\n        totalDesiredBandwidth += bandwidth;\n        // In this case, the thresholdBid is compared with desiredBandwidth * bandwidthPrice to determine whether the user is dynamic\n        if(bandwidthPrice * bandwidth / bandwidthPriceScalingFactor > thresholdBid) {\n            isDynamic[userID - 1] = true;\n            totalDesiredDynamic += bandwidth;\n        } else {\n            isDynamic[userID - 1] = false;\n            totalDesiredNonDynamic += bandwidth;\n        }\n        totalDesiredBurst += burst;\n        currentBalances[userID - 1] += msg.value;\n        users[userID].desiredBandwidth = bandwidth;\n        users[userID].lastPaymentTime = now;\n        users[userID].thresholdBid = thresholdBid;\n        users[userID].burst = burst;\n        burstVol[userID - 1] = burst;\n        updatePrice(bandwidth * bandwidthScalingFactor, true);\n        performAllocation();\n        updateBalance();\n    }\n    \n    // When the user wants to quit the connection\n    // The owner still keeps the user profile for a certain period\n    function connectionTermination(uint userID) internal {\n        uint deltaBandwidth = users[userID].receivedBandwidth;\n        // uint deltaBandwidth = users[userID].desiredBandwidth * bandwidthScalingFactor;\n        pendingWithdrawl[users[userID].userAddress] += (currentBalances[userID - 1] + msg.value);\n        isActive[userID - 1] = false;\n        totalDesiredBandwidth -= users[userID].desiredBandwidth;\n        if(isDynamic[userID - 1]) {\n            totalDesiredDynamic -= users[userID].desiredBandwidth;\n        } else {\n            totalDesiredNonDynamic -= users[userID].desiredBandwidth;\n        }\n        totalDesiredBurst -= users[userID].burst;\n        isDynamic[userID - 1] = false;\n        currentBalances[userID - 1] = 0;\n        users[userID].receivedBandwidth = 0;\n        users[userID].desiredBandwidth = 0;\n        users[userID].thresholdBid = 0;\n        users[userID].burst = 0;\n        burstVol[userID - 1] = 0;\n        allocatedBandwidth[userID - 1] = 0;\n        actualPrices[userID - 1] = 0;\n        // Similar to connectionRenewal(), the deltaBandwidth depends on the *actually received bandwidth*\n        updatePrice(deltaBandwidth, false);\n        performAllocation();\n        updateBalance();\n    }\n    \n    // When the total desired bandwidth does not exceed the available bandwidth:\n    // Everyone simply gets as much as desired\n    function demandNotExceedSupply() internal {\n        for(uint i = 0; i < numUsers; i++) {\n            if(isActive[i]) {\n                actualPrices[i] = bandwidthPrice;\n                allocatedBandwidth[i] = users[i + 1].desiredBandwidth * bandwidthScalingFactor;\n                users[i + 1].receivedBandwidth = users[i + 1].desiredBandwidth * bandwidthScalingFactor;\n            }\n        }\n    }\n    \n    // When the total desired bandwidth exceeds the available bandwidth:\n    // The resource allocation mechanism is triggered\n    function demandExceedSupply() internal {\n        // uint weight;\n        uint weightedPrice;\n        updateIsDynamic();\n        if(totalDesiredNonDynamic >= totalBandwidth) {\n            // Ignore isDynamic[] and actualPrices[], and all users are charged bandwidthPrice\n            // Proportionally allocate the bandwidth according to desired bandwidth\n            for(uint i = 0; i < numUsers; i++) {\n                if(isActive[i]) {\n                    actualPrices[i] = bandwidthPrice;\n                    allocatedBandwidth[i] = users[i + 1].desiredBandwidth * totalBandwidth * bandwidthScalingFactor / totalDesiredBandwidth;\n                    users[i + 1].receivedBandwidth = allocatedBandwidth[i];\n                }\n            }\n        } else {\n            // Non-dynamic users receive desired bandwidth, while dynamic users proportionally share the remaining\n            // weight = totalDesiredDynamic * bandwidthPriceScalingFactor / (totalBandwidth - totalDesiredNonDynamic);\n            // weightedPrice = weight * bandwidthPrice / bandwidthPriceScalingFactor;\n            weightedPrice = totalDesiredDynamic * bandwidthPrice / (totalBandwidth - totalDesiredNonDynamic);\n            for(uint i = 0; i < numUsers; i++) {\n                if(isActive[i]) {\n                    if(isDynamic[i]) {\n                        actualPrices[i] = bandwidthPrice;\n                        allocatedBandwidth[i] = users[i + 1].desiredBandwidth * (totalBandwidth - totalDesiredNonDynamic) * bandwidthScalingFactor / totalDesiredDynamic;\n                        users[i + 1].receivedBandwidth = allocatedBandwidth[i];\n                    } else {\n                        // actualPrices[i] = weight * bandwidthPrice / bandwidthPriceScalingFactor;\n                        actualPrices[i] = weightedPrice;\n                        allocatedBandwidth[i] = users[i + 1].desiredBandwidth * bandwidthScalingFactor;\n                        users[i + 1].receivedBandwidth = users[i + 1].desiredBandwidth * bandwidthScalingFactor;\n                    }\n                }\n            }\n        }\n    }\n    \n    // Update the real-time unit price according to user demand\n    // NOTICE: deltaBandwidth is a scaled value\n    function updatePrice(uint deltaBandwidth, bool isPositive) internal {\n        // uint prevPrice = bandwidthPrice;\n        oldPrice = bandwidthPrice;\n        if(totalDesiredBandwidth <= totalBandwidth) {\n            bandwidthPrice = minBandwidthPrice * bandwidthPriceScalingFactor;\n        } else {\n            if(isPositive) {\n                // New price = Total bid / Total bandwidth = Current price * (Total allocated bandwidth + New demand) / Total bandwidth\n                // (1) Total allocated bandwidth < Total bandwidth, i.e., totalDesiredBandwidth - deltaBandwidth < totalBandwidth\n                // (2) Total allocated bandwidth = Total bandwidth, i.e., totalDesiredBandwidth - deltaBandwidth >= totalBandwidth\n                if(totalDesiredBandwidth * bandwidthScalingFactor - deltaBandwidth < totalBandwidth * bandwidthScalingFactor) {\n                    bandwidthPrice = bandwidthPrice * totalDesiredBandwidth / totalBandwidth;\n                } else {\n                    bandwidthPrice = bandwidthPrice * (totalBandwidth * bandwidthScalingFactor + deltaBandwidth) / (totalBandwidth * bandwidthScalingFactor);\n                    // bandwidthPrice = bandwidthPrice * totalDesiredBandwidth * bandwidthScalingFactor / (totalDesiredBandwidth * bandwidthScalingFactor - deltaBandwidth);\n                }\n            } else {\n                // The condition has guaranteed that: Total allocated bandwidth = Total bandwidth\n                // New price = Total bid / Total bandwidth = Current Price * (Total bandwidth - Reduced demand) / Total bandwidth\n                bandwidthPrice = bandwidthPrice * (totalBandwidth * bandwidthScalingFactor - deltaBandwidth) / (totalBandwidth * bandwidthScalingFactor);\n                // bandwidthPrice = bandwidthPrice * totalDesiredBandwidth * bandwidthScalingFactor / (totalDesiredBandwidth * bandwidthScalingFactor + deltaBandwidth);\n            }\n        }\n        burstPrice = minBurstPriceFactor * totalDesiredBurst * totalDesiredBurst;\n    }\n\n    // Update whether the user is dynamic according to current demand and price\n    function updateIsDynamic() internal {\n        // uint weight;\n        uint weightedPrice;\n        if(totalDesiredNonDynamic >= totalBandwidth) {\n            for(uint i = 0; i < numUsers; i++) {\n                if(isActive[i]) {\n                    // In this case, the thresholdBid is compared with desiredBandwidth * bandwidthPrice to determine whether the user is dynamic\n                    if(!isDynamic[i] && bandwidthPrice * users[i + 1].desiredBandwidth / bandwidthPriceScalingFactor > users[i + 1].thresholdBid) {\n                        isDynamic[i] = true;\n                        totalDesiredNonDynamic -= users[i + 1].desiredBandwidth;\n                        totalDesiredDynamic += users[i + 1].desiredBandwidth;\n                    } else if (isDynamic[i] && bandwidthPrice * users[i + 1].desiredBandwidth / bandwidthPriceScalingFactor <= users[i + 1].thresholdBid) {\n                        isDynamic[i] = false;\n                        totalDesiredDynamic -= users[i + 1].desiredBandwidth;\n                        totalDesiredNonDynamic += users[i + 1].desiredBandwidth;\n                    }\n                }\n            }\n        }\n        // Not using *else* here, since a second-round update may be needed after the first *if*\n        // weight > 1, so some non-dynamic users after the first round may be tagged as dynamic in this round\n        // weight is decreasing, so probably multiple rounds of update are needed\n        // ***UPDATE***: Limit the number of cycles to avoid gas over limit\n        uint numCycle;\n        while(true) {\n            numCycle++;\n            bool hasChanged;\n            if(totalDesiredNonDynamic < totalBandwidth) {\n                // weight = totalDesiredDynamic * bandwidthPriceScalingFactor / (totalBandwidth - totalDesiredNonDynamic);\n                // weightedPrice = weight * bandwidthPrice / bandwidthPriceScalingFactor;\n                weightedPrice = totalDesiredDynamic * bandwidthPrice / (totalBandwidth - totalDesiredNonDynamic);\n                // If the bid per unit time exceeds the thresholdBid, the user becomes dynamic\n                for(uint i = 0; i < numUsers; i++) {\n                    if(isActive[i]) {\n                        // In this case, the thresholdBid is compared with desiredBandwidth * weightedPrice to determine whether the user is dynamic\n                        if(!isDynamic[i] && weightedPrice * users[i + 1].desiredBandwidth / bandwidthPriceScalingFactor > users[i + 1].thresholdBid) {\n                            isDynamic[i] = true;\n                            totalDesiredNonDynamic -= users[i + 1].desiredBandwidth;\n                            totalDesiredDynamic += users[i + 1].desiredBandwidth;\n                            hasChanged = true;\n                        } else if(isDynamic[i] && weightedPrice * users[i + 1].desiredBandwidth / bandwidthPriceScalingFactor <= users[i + 1].thresholdBid) {\n                            isDynamic[i] = false;\n                            totalDesiredDynamic -= users[i + 1].desiredBandwidth;\n                            totalDesiredNonDynamic += users[i + 1].desiredBandwidth;\n                            hasChanged = true;\n                        }\n                    }\n                }\n            }\n            // Check numCycle to avoid infinite loop, e.g., when a user keeps changing between the dynamic and non-dynamic users\n            if(!hasChanged || numCycle == 10 || totalDesiredNonDynamic == 0) {\n                break;\n            }\n        }\n    }\n    \n        \n    // Allow the user to withdraw remaining balance upon connection termination\n    function withdrawBalance() internal {\n        uint amount = pendingWithdrawl[msg.sender];\n        pendingWithdrawl[msg.sender] = 0;\n        msg.sender.transfer(amount);\n    }\n    \n    // Allow the owner to collect bids submitted by users\n    function collectBids() internal {\n        uint amount = pendingCollection;\n        pendingCollection = 0;\n        totalCollected += amount;\n        owner.transfer(amount);\n    }\n    \n    // Clearing all existing user profiles and reset the parameters\n    function resetAll() internal onlyOwner {\n        for(uint i = 0; i < numUsers; i++) {\n            delete(pendingWithdrawl[users[i + 1].userAddress]);\n            delete(occupiedID[users[i + 1].userAddress]);\n            delete(users[i + 1]);\n        }\n        delete currentBalances;\n        delete allocatedBandwidth;\n        delete actualPrices;\n        delete isDynamic;\n        delete isActive;\n        delete numUsers;\n        delete totalCollected;\n        delete pendingCollection;\n        bandwidthPrice = minBandwidthPrice * bandwidthPriceScalingFactor;\n        delete totalDesiredBurst;\n        delete totalDesiredDynamic;\n        delete totalDesiredNonDynamic;\n        delete totalDesiredBandwidth;\n        delete burstVol;\n    }\n}",
  "sourcePath": "/Users/aaron/Documents/difi-admin/contracts/WifiAllocation.sol",
  "compiler": {
    "name": "solc",
    "version": "0.5.16+commit.9c3226ce.Emscripten.clang"
  },
  "schemaVersion": "3.3.4",
  "updatedAt": "2021-04-11T14:03:56.701Z",
  "networkType": "ethereum",
  "devdoc": {
    "methods": {}
  },
  "userdoc": {
    "methods": {}
  }
}